:100000000C945D000C9485000C9485000C94850084
:100010000C9485000C9485000C9485000C9485004C
:100020000C9485000C9485000C9485000C9485003C
:100030000C9485000C9485000C9485000C9485002C
:100040000C942B040C9485000C94F9030C94D303AA
:100050000C9485000C9485000C9485000C9485000C
:100060000C9485000C94850000000008000201003B
:100070000003040700000000000000000000000072
:10008000250028002B0000000000240027002A0083
:10009000040404040404040402020202020203032E
:1000A0000303030301020408102040800102040836
:1000B0001020010204081020750411241FBECFEF88
:1000C000D8E0DEBFCDBF11E0A0E0B1E0E2E8FCE0A7
:1000D00002C005900D92AE3AB107D9F722E0AEEA20
:1000E000B1E001C01D92AC36B207E1F710E0CDE5FA
:1000F000D0E004C02197FE010E943906CC35D1071B
:10010000C9F70E94BF040C943F060C94000090E0D5
:10011000FC01EC55FF4F249180579F4FFC018491C7
:10012000882399F090E0880F991FFC01EA57FF4F50
:10013000A591B491FC01E458FF4F859194918FB73C
:10014000F894EC91E22BEC938FBF0895AF92BF929D
:10015000CF92DF92EF92FF920F931F93CF93DF9393
:100160006C017B018B01040F151FEB015E01AE18C2
:10017000BF08C017D10759F06991D601ED91FC91E4
:100180000190F081E02DC6010995892B79F7C50111
:10019000DF91CF911F910F91FF90EF90DF90CF9063
:1001A000BF90AF900895FC01538D448D252F30E012
:1001B000842F90E0821B930B541710F0CF96089574
:1001C00001970895FC01918D828D981761F0A28DA1
:1001D000AE0FBF2FB11D5D968C91928D9F5F9F7367
:1001E000928F90E008958FEF9FEF0895FC01918D1D
:1001F000828D981731F0828DE80FF11D858D90E08A
:1002000008958FEF9FEF0895FC01918D228D892F26
:1002100090E0805C9F4F821B91098F73992708950E
:1002200087EB91E00E94040121E0892B09F420E092
:10023000822F089580E090E0892B29F00E94100120
:1002400081110C9400000895FC01A48DA80FB92F12
:10025000B11DA35ABF4F2C91848D90E001968F73EE
:100260009927848FA689B7892C93A089B1898C910D
:10027000837080648C93938D848D981306C002885C
:10028000F389E02D80818F7D80830895EF92FF9226
:100290000F931F93CF93DF93EC0181E0888F9B8DA9
:1002A0008C8D98131AC0E889F989808185FF15C063
:1002B0009FB7F894EE89FF896083E889F989808186
:1002C0008370806480839FBF81E090E0DF91CF9155
:1002D0001F910F91FF90EF900895F62E0B8D10E077
:1002E0000F5F1F4F0F731127E02E8C8D8E110CC0E6
:1002F0000FB607FCFACFE889F989808185FFF5CF31
:10030000CE010E942401F1CFEB8DEC0FFD2FF11DEA
:10031000E35AFF4FF0829FB7F8940B8FEA89FB896D
:1003200080818062CFCFCF93DF93EC01888D8823CB
:10033000B9F0AA89BB89E889F9898C9185FD03C048
:10034000808186FD0DC00FB607FCF7CF8C9185FF2D
:10035000F2CF808185FFEDCFCE010E942401E9CF4D
:10036000DF91CF91089590E0FC01E859FF4F24916F
:10037000FC01EC55FF4F3491FC01E057FF4FE49135
:10038000EE23C9F0222339F0233001F1A8F4213003
:1003900019F1223029F1F0E0EE0FFF1FE458FF4F72
:1003A000A591B4918FB7F894EC91611126C0309566
:1003B0003E233C938FBF08952730A9F02830C9F021
:1003C000243049F7809180008F7D03C080918000A8
:1003D0008F7780938000DFCF84B58F7784BDDBCFAC
:1003E00084B58F7DFBCF8091B0008F778093B00074
:1003F000D2CF8091B0008F7DF9CF3E2BDACF8E30F7
:1004000008F08E508770806480937C0080917A0021
:10041000806480937A0080917A0086FDFCCF809181
:1004200078009091790008953FB7F8948091B301D6
:100430009091B401A091B501B091B60126B5A89BE9
:1004400005C02F3F19F00196A11DB11D3FBFBA2F66
:10045000A92F982F8827BC01CD01620F711D811D26
:10046000911D42E0660F771F881F991F4A95D1F7AB
:1004700008958F929F92AF92BF92CF92DF92EF92A8
:10048000FF924B015C010E9414026B017C010E94EF
:1004900014026C197D098E099F09683E734081051D
:1004A0009105A8F321E0821A9108A108B10888EE0D
:1004B000C80E83E0D81EE11CF11C81149104A10434
:1004C000B10429F7FF90EF90DF90CF90BF90AF90ED
:1004D0009F908F900895089590E080E00895FC012A
:1004E00001900020E9F73197AF01481B590BBC017F
:1004F00084E592E00C94A6000C946F02CF93DF93F6
:10050000EC0160E08E810E94B30161E08E810E9467
:10051000B30160E08E810E94B3018BE891E0019706
:10052000F1F7DF91CF910895CF92DF92EF92FF9292
:100530000F931F93CF93DF936C017C0187E0E80E4C
:10054000F11CD0E0C0E0062F10E0B8010C2E02C074
:10055000759567950A94E2F76170F70181917F01C3
:100560000E94B3012196C430D10579F7C601DF910D
:10057000CF911F910F91FF90EF90DF90CF900C944F
:100580007E02CF92DF92EF92FF920F931F93CF9351
:10059000DF93EC01F62E642F8C810E94B3018D81D4
:1005A0008F3F19F060E00E94B3010F2D10E08F859E
:1005B00084FF25C06E0187E0C80ED11CF12CE12C10
:1005C000B8010E2C02C0759567950A94E2F7617028
:1005D000F60181916F010E94B301FFEFEF1AFF0A4C
:1005E00088E0E816F10461F7CE01DF91CF911F9109
:1005F0000F91FF90EF90DF90CF900C947E02B801A6
:1006000084E0759567958A95E1F7CE010E94940282
:100610006F2DCE01DF91CF911F910F91FF90EF9041
:10062000DF90CF900C94940240E0682F84E592E034
:100630000C94C10281E00E9414038BE39FE10197B7
:10064000F1F70895CF93DF93823029F490916302FC
:10065000986090936302809367021092680280E42E
:100660008093690280E180936A0280E580936B0247
:10067000809158020E948700809159028F3F11F0AB
:100680000E94870080915A020E948700C4E5D2E050
:100690009E01245532408091630284FD0AC084E0AB
:1006A00090E02196281739073CF48E810E9487003C
:1006B000EFCF88E090E0F5CF8BE39DE00197F1F775
:1006C00060E0809158020E94B30160E080915A027C
:1006D0000E94B301809159028F3F19F060E00E949F
:1006E000B3018091630284FD34C063E084E592E04D
:1006F0000E949402CBE4D6E4CE010197F1F763E0C7
:1007000084E592E00E9494022197F1F763E084E58A
:1007100092E00E94940283E592E00197F1F762E093
:1007200084E592E00E9494028091630280620E94BC
:10073000140384E0809364028CE00E9414030E94FE
:100740001A0382E08093650286E0DF91CF910C94DA
:10075000140380620E9414038BE496E40197F1F77E
:100760008091630280620E94140383E592E0019706
:10077000F1F78091630280620E941403D5CF9091BB
:100780006702891710F08FEF890FE82FF0E0EC5A1D
:10079000FD4F848980680C94140341E00E94C102DB
:1007A00081E090E008951F920F920FB60F921124EE
:1007B0002F933F934F935F936F937F938F939F9369
:1007C000AF93BF93EF93FF9387EB91E00E942401D7
:1007D000FF91EF91BF91AF919F918F917F916F9119
:1007E0005F914F913F912F910F900FBE0F901F90EF
:1007F00018951F920F920FB60F9211242F938F937B
:100800009F93EF93FF93E091C701F091C80180811E
:10081000E091CD01F091CE0182FD1BC090818091CD
:10082000D0018F5F8F732091D101821741F0E09149
:10083000D001F0E0E954FE4F958F8093D001FF91F5
:10084000EF919F918F912F910F900FBE0F901F905E
:1008500018958081F4CF1F920F920FB60F9211243A
:100860002F933F938F939F93AF93BF938091AF014B
:100870009091B001A091B101B091B2013091AE015F
:1008800023E0230F2D3758F50196A11DB11D2093AC
:10089000AE018093AF019093B001A093B101B093EA
:1008A000B2018091B3019091B401A091B501B091D2
:1008B000B6010196A11DB11D8093B3019093B401BF
:1008C000A093B501B093B601BF91AF919F918F9165
:1008D0003F912F910F900FBE0F901F90189526E813
:1008E000230F0296A11DB11DD2CFE7EBF1E01382D9
:1008F000128288EE93E0A0E0B0E084839583A68323
:10090000B78384E091E09183808385EC90E09587C4
:10091000848784EC90E09787868780EC90E0918BC9
:10092000808B81EC90E0938B828B82EC90E0958BB6
:10093000848B86EC90E0978B868B118E128E138EB3
:10094000148EE4E5F2E01382128286E191E0918355
:1009500080838CE084838FEF85838BE0868386E0C1
:10096000878385E0808784E0818783E082871386A0
:10097000148615861686178681E00C942203CF9381
:10098000DF93CDB7DEB7A1970FB6F894DEBF0FBEE9
:10099000CDBF789484B5826084BD84B5816084BD08
:1009A00085B5826085BD85B5816085BD80916E000D
:1009B000816080936E00109281008091810082603E
:1009C000809381008091810081608093810080917B
:1009D00080008160809380008091B100846080936A
:1009E000B1008091B00081608093B00080917A0066
:1009F000846080937A0080917A00826080937A008C
:100A000080917A00816080937A0080917A0080687A
:100A100080937A001092C100E091C701F091C80163
:100A200082E08083E091C301F091C4011082E091E3
:100A3000C501F091C6018FEC80831092CF01E09147
:100A4000CB01F091CC0186E08083E091C901F09167
:100A5000CA01808180618083E091C901F091CA015F
:100A6000808188608083E091C901F091CA01808112
:100A700080688083E091C901F091CA0180818F7DF7
:100A8000808382E00E94220382E00E9487000E940D
:100A90001A0380E00E94BF038EE191E00E947C0275
:100AA00060ED77E080E090E00E9439020E941A0336
:100AB00080E00E94BF038CE291E00E947C0281E012
:100AC0000E94BF0384E491E00E947C0268EB7BE01B
:100AD00080E090E00E9439020E941A0380E00E94A8
:100AE000FF01803991400CF475C080E00E94BF0383
:100AF00080E591E00E947C0281E00E94BF038CE5CA
:100B000091E00E947C0268E873E180E090E00E943E
:100B100039020E941A038AE0482E512C612C712C54
:100B200090E0A92E90E0B92E80E00E94FF018C0198
:100B300080E00E94BF038EE791E00E947C02680182
:100B4000012E000CEE08FF08F7FE51C041E06DE2F7
:100B500084E592E00E94C10222273327A9012C19C3
:100B60003D094E095F0919A2CE0181967C01CA0197
:100B7000B901A30192010E941706605DF70162931B
:100B80007F01211531054105510589F7E114F10473
:100B900019F0C7010E946F028BE891E00E946F027A
:100BA00000391140D4F161E082E00E94B30181E09C
:100BB0000E94BF038EE891E00E947C02A114B10460
:100BC00009F4B2CF0E941001882309F4ADCF0E942E
:100BD0000000AACF80E00E94BF0380E591E00E9460
:100BE0007C0281E00E94BF038DE691E08ACFA701DD
:100BF000960119A2CE0181967C01CA01B901A30117
:100C000092010E941706605DF70162937F01211532
:100C100031054105510589F7B9CF60E082E00E94B6
:100C2000B30181E00E94BF038DE991E0C5CFA1E24D
:100C30001A2EAA1BBB1BFD010DC0AA1FBB1FEE1F56
:100C4000FF1FA217B307E407F50720F0A21BB30BA1
:100C5000E40BF50B661F771F881F991F1A9469F71D
:100C600060957095809590959B01AC01BD01CF0179
:100C70000895EE0FFF1F0590F491E02D0994F8946C
:020C8000FFCFA4
:100C8200000000004601A600D30093010401E20027
:100C9200F60000000000CD03A6006C026B022020CB
:100CA200202057454C2D434F4D452000534D415276
:100CB200542049525249474154494F4E20535953A7
:100CC20054454D00202020202053595354454D00B7
:100CD200535441545553202E2E2E2E0020202020D6
:100CE2002020202044525920534F494C00202020DC
:100CF20020202048554D494420534F494C0053452C
:100D02004E534F522056414C203D000D0A002020E8
:100D1200202A5741544552494E472A2000202A4E44
:0E0D22004F54205741544552494E472A000075
:00000001FF
